:100000000C9472000C949A000C949A000C949A0030
:100010000C949A000C949A000C949A000C949A00F8
:100020000C949A000C949A000C949A000C94B708C3
:100030000C949A000C949A000C949A000C949A00D8
:100040000C946D080C949A000C943B080C941508C1
:100050000C949A000C949A000C949A000C949A00B8
:100060000C949A000C949A00005EBCE2613FDD8320
:10007000C29C7E20A3FD1F41009D23BE46DB65F888
:100080008C11AF32CA57E974000000002400270029
:100090002A0000000000250028002B0000000008B6
:1000A000000201000003040700000000000000003F
:1000B00000000000230026002900040404040404B6
:1000C0000404020202020202030303030303010207
:1000D00004081020408001020408102001020408D6
:1000E0001020730911241FBECFEFD8E0DEBFCDBFB3
:1000F00011E0A0E0B1E0E0E8F5E202C005900D9269
:10010000A837B107D9F722E0A8E7B1E001C01D92F6
:10011000A43BB207E1F710E0C2E7D0E004C02197AA
:10012000FE010E94B812C137D107C9F70E94670AC1
:100130000C94BE120C940000CF92DF92EF92FF92CB
:10014000DC01A03282E0B807D4F5A53BB10514F07C
:10015000A4EBB0E040918A0228E830E0241B31098A
:1001600047FD3395220F331F220F331F6901330FD1
:10017000EE08FF0840918B0228E532E0241B31098C
:1001800047FD3395220F331F220F331F032E000C20
:10019000440B550B2C193D094E095F09B7FF02C0EE
:1001A000B0E0A0E00E940F1024EB30E040E050E00F
:1001B0000E94E50FC20ED31EE41EF51ED601E0918B
:1001C0008902EC3080F520918A0288E890E0821B59
:1001D000910927FD9395880F991F880F991FA817DC
:1001E000B90784F020918B0288E592E0821B910987
:1001F00027FD9395880F991F880F991FA817B90796
:100200000CF4CD010297880F991F4FB7F8942E2F49
:1002100030E0F901EE0FFF1FE20FF31FED5DFD4F20
:10022000928381834FBFFF90EF90DF90CF9008952E
:10023000AF92BF92CF92DF92EF92FF920F931F93F4
:10024000CF93DF936C017B018B01040F151FEB0132
:100250005E01AE18BF08C017D10759F06991D601E9
:10026000ED91FC910190F081E02DC6010995892B5B
:1002700079F7C501DF91CF911F910F91FF90EF901A
:10028000DF90CF90BF90AF900895FC01538D448DC7
:10029000252F30E0842F90E0821B930B541710F031
:1002A000CF96089501970895FC01918D828D98173E
:1002B00061F0A28DAE0FBF2FB11D5D968C91928D16
:1002C0009F5F9F73928F90E008958FEF9FEF089547
:1002D000FC01918D828D981731F0828DE80FF11D10
:1002E000858D90E008958FEF9FEF0895FC01918D2B
:1002F000228D892F90E0805C9F4F821B91098F7324
:100300009927089586E891E00E94760121E0892BE3
:1003100009F420E0822F089580E090E0892B29F0F5
:100320000E94820181110C9400000895FC01A48DAB
:10033000A80FB92FB11DA35ABF4F2C91848D90E007
:1003400001968F739927848FA689B7892C93A089EA
:10035000B1898C91837080648C93938D848D981374
:1003600006C00288F389E02D80818F7D8083089507
:10037000EF92FF920F931F93CF93DF93EC0181E0F5
:10038000888F9B8D8C8D98131AC0E889F98980819C
:1003900085FF15C09FB7F894EE89FF896083E889CF
:1003A000F98980818370806480839FBF81E090E0C1
:1003B000DF91CF911F910F91FF90EF900895F62E4E
:1003C0000B8D10E00F5F1F4F0F731127E02E8C8DE8
:1003D0008E110CC00FB607FCFACFE889F98980812D
:1003E00085FFF5CFCE010E949601F1CFEB8DEC0F8A
:1003F000FD2FF11DE35AFF4FF0829FB7F8940B8F4A
:10040000EA89FB8980818062CFCFCF93DF93EC01B3
:10041000888D8823B9F0AA89BB89E889F9898C91EC
:1004200085FD03C0808186FD0DC00FB607FCF7CFA8
:100430008C9185FFF2CF808185FFEDCFCE010E94A8
:100440009601E9CFDF91CF91089590E0FC01E45649
:10045000FF4F2491FC01E253FF4F3491FC01E6541D
:10046000FF4FE491EE23C9F0222339F0233001F14C
:10047000A8F4213019F1223029F1F0E0EE0FFF1F2E
:10048000EE56FF4FA591B4918FB7F894EC9161119E
:1004900026C030953E233C938FBF08952730A9F0A6
:1004A0002830C9F0243049F7809180008F7D03C047
:1004B000809180008F7780938000DFCF84B58F7725
:1004C00084BDDBCF84B58F7DFBCF8091B0008F776B
:1004D0008093B000D2CF8091B0008F7DF9CF3E2BBA
:1004E000DACFCF93DF9390E0FC01E253FF4F2491EA
:1004F00086549F4FFC0184918823D1F090E0880FAF
:10050000991FFC01E857FF4FA591B491FC01EE56ED
:10051000FF4FC591D49161110EC09FB7F8948C9193
:10052000E22FE0958E238C932881E223E8839FBFFE
:10053000DF91CF9108958FB7F894EC91E22BEC9373
:100540008FBFF6CF3FB7F89480917E0190917F01E5
:10055000A0918001B091810126B5A89B05C02F3FD5
:1005600019F00196A11DB11D3FBFBA2FA92F982FD9
:100570008827BC01CD01620F711D811D911D42E0D4
:10058000660F771F881F991F4A95D1F708958F929C
:100590009F92AF92BF92CF92DF92EF92FF926B0148
:1005A0007C010E94A2024B015C01C114D104E10450
:1005B000F104B9F00E94A202681979098A099B091D
:1005C000683E73408105910580F321E0C21AD1088D
:1005D000E108F10888EE880E83E0981EA11CB11C8A
:1005E000E4CFFF90EF90DF90CF90BF90AF909F90BF
:1005F0008F9008952FB7F89460917A0170917B01E4
:1006000080917C0190917D012FBF0895DC0180E0F5
:10061000615090F09D919827E92FEF70F0E0E85934
:10062000FF4F2491E92FE295EF70F0E0E858FF4F7B
:10063000E491822F8E27ECCF0895DC012C91119646
:10064000ED91FC91F8948181822B81839281322FEC
:1006500030959323928387E090E00197F1F78181B1
:100660008323818383E290E00197F1F7908178946E
:10067000EFECF0E03197F1F7922381E009F480E0AC
:100680000895FC0190810180F281E02D292F2095B1
:1006900060FF14C0F8948281822382838181892B38
:1006A0008183A3E2B0E01197F1F78281982B9283C6
:1006B000789487ED90E00197F1F70895F89482819E
:1006C000822382838181892B8183AFEFB0E01197F0
:1006D000F1F78281982B928378948FE090E0EBCFB2
:1006E000DF92EF92FF920F931F93CF93DF93EC0172
:1006F000D62EE42E08E010E0FF24F39461E08D2D67
:100700008F2109F460E0CE010E944103FF0C0150EB
:100710001109A1F7E11010C0F894E981FA819181E3
:100720008881809589238183E981FA8192818881FA
:100730008095892382837894DF91CF911F910F91C7
:10074000FF90EF90DF900895FC0190810180F2818D
:10075000E02DF8948181292F20958223818378943C
:100760003DE743E050E0315029F1DA011197F1F70C
:1007700080818923C1F3F8948281822382838181DD
:10078000892B81837894ABE7B7E01197F1F7F89460
:10079000818182238183A3E1B1E01197F1F7808108
:1007A000982381E009F080E07894E3E6F6E0319761
:1007B000F1F7089580E008958F929F92AF92BF92D3
:1007C000CF92DF92EF92FF928091980290919902DE
:1007D0000E94A40340E06CEC8091980290919902F1
:1007E0000E9470034091920264E48091980290917B
:1007F00099020E94700380919402882399F1E091FC
:100800009302E9508EEEC82E82E0D82EE33038F401
:10081000F0E0EE0FFF1FE050FF4FC080D1808091CD
:100820009502882341F180919202811124C00E9497
:10083000FA024B015C010D2C000CEE08FF088091C0
:100840009802909199020E941D03813059F00E94F4
:10085000FA026C197D098E099F09681579058A05C8
:100860009B0568F3FF90EF90DF90CF90BF90AF9023
:100870009F908F900895B601DD0C880B990BFF9027
:10088000EF90DF90CF90BF90AF909F908F900C949F
:10089000C7024F925F926F927F928F929F92AF9218
:1008A000BF92CF92DF92EF92FF920F931F93CF935D
:1008B000DF93CDB7DEB729970FB6F894DEBF0FBE32
:1008C000CDBF8C0180919802909199020E94A4035F
:1008D00081111AC020E834EEC90129960FB6F894A8
:1008E000DEBF0FBECDBFDF91CF911F910F91FF9063
:1008F000EF90DF90CF90BF90AF909F908F907F90C0
:100900006F905F904F900895C0909802D090990298
:1009100040E065E5C6010E9470037801580148E097
:10092000A40EB11CF70161917F0140E0C6010E9455
:100930007003AE14BF04B1F740E06EEB80919802F3
:10094000909199020E947003AE014F5F5F4F7A0150
:100950005E015AE0A50EB11C27018090980290908C
:10096000990278E0672E712CD12CCC24C394C40159
:100970000E941D038111DC28CC0C81E0681A7108EB
:10098000B1F7F701D1927F01AE16BF0631F7809122
:100990009802909199020E94A403813009F09ACFA5
:1009A00068E0C2010E9406039985891393CF2A81CA
:1009B00030E0322F2227330F330F330F8981F8E0D5
:1009C0008F9FC0011124282B392BF80180818031A1
:1009D00009F082CF688570E08F81AB01481B510917
:1009E000CA019695982F8827979587950E9490120F
:1009F0006051710953E0220F331F5A95E1F72078B7
:100A0000260F371F69CFFC0101900020E9F73197CD
:100A1000AF01481B590BBC0186E891E00C9418010A
:100A20008F929F92AF92BF920F931F93CF93DF93BA
:100A3000CDB7DEB7A1970FB6F894DEBF0FBECDBF1E
:100A400019A2423008F44AE08E010F5D1F4F842E38
:100A5000912CB12CA12CA50194010E941710E62F16
:100A6000B901CA01EA30F4F4E05DD801EE938D01DA
:100A7000232B242B252B79F790E080E0109719F099
:100A8000CD010E940305A1960FB6F894DEBF0FBEFC
:100A9000CDBFDF91CF911F910F91BF90AF909F90ED
:100AA0008F900895E95CE1CFCF93DF930E94030517
:100AB000EC0188E191E00E9403058C0F9D1FDF91FE
:100AC000CF9108958091900290919102892B19F114
:100AD00080918C0290918D02209185023091860246
:100AE0004091870250918802240F351F8217930787
:100AF00094F4019690938D0280938C020E949C0046
:100B000062E070E080E090E00E94C7028BE191E03B
:100B10000E945405DDCF8091900290919102892B23
:100B2000C9F08091850290918602209187023091D0
:100B30008802820F931F20918C0230918D0228171A
:100B4000390741F4109291021092900283E291E0F1
:100B50000C94540508958091900290919102019710
:100B6000E9F080918C0290918D0220918502309164
:100B700086022817390794F4019790938D02809389
:100B80008C020E949C0062E070E080E090E00E9495
:100B9000C7028FE291E00E945405E3CF809190025A
:100BA000909191020197A9F020918C0230918D02D1
:100BB00080918502909186022817390751F481E0CF
:100BC00090E0909391028093900287E391E00C94DF
:100BD000540508955F926F927F928F929F92AF9289
:100BE000BF92CF92DF92EF92FF920F931F93CF931A
:100BF000DF937C01862EE0919802F0919902138692
:100C00001586148612861186108617821682158222
:100C100014821382712C662463946C0188E0C80EE0
:100C2000D11CC0919802D09199029D849920A9F07D
:100C30001B861D861C86912C892DDF91CF911F91DB
:100C40000F91FF90EF90DF90CF90BF90AF909F906B
:100C50008F907F906F905F900895CE010E94A403C3
:100C6000811104C01B861D861C86E6CF40E060EF24
:100C7000CE010E94700301E0A12C512C11E0CE01A5
:100C80000E941D03B82ECE010E941D0391E0B912EF
:100C900019C08130A1F5113458F25B86511001C0A2
:100CA0006D868B81882321F22396F70189918193A8
:100CB000EC15FD05D9F78714C1F17394871408F07A
:100CC000B0CFBACFEA2DF0E0B8120FC08B8518175D
:100CD000A0F4DE01AE0FBF1F13968C91802379F430
:100CE000B12C193008F41C87512EEC0FFD1F8381A5
:100CF000902F9095892383830AC08113F1CFFE0141
:100D0000EA0DF11D8381802B8383BB24B3946B2D6B
:100D1000CE010E9441031F5F000F11F4A39401E074
:100D2000E7E0EA1508F0ABCFB6CF67E0C7010E9455
:100D30000603F70197818913C0CF992493947CCF40
:100D4000CF92DF92EF92FF920F931F93CF93DF9397
:100D5000CDB7DEB728970FB6F894DEBF0FBECDBF74
:100D60000E94FA0200915A0210915B0220915C02EB
:100D700030915D02601B710B820B930B683E7340D8
:100D80008105910508F466C00E94DC038AE4E82E20
:100D900082E0F82E10E000E0809148029091490234
:100DA000081719074CF5602FCE0101960E94EA053D
:100DB00081110DC060E070E08EEF92ECF70161935D
:100DC0007193819391937F010F5F1F4FE5CFCE0108
:100DD00001960E9449048138E4EE9E075CF3BC0151
:100DE000990F880B990B0E945D1120E030E040E0E4
:100DF0005CE30E941212E2CFC0907902D0907A0296
:100E0000E0907B02F0907C02A701960160917D0248
:100E100070917E0280917F02909180020E94491021
:100E200060937D0270937E0280937F029093800294
:100E3000C0928102D0928202E0928302F0928402F8
:100E40000E94FA0260935A0270935B0280935C02E4
:100E500090935D0228960FB6F894DEBF0FBECDBF0B
:100E6000DF91CF911F910F91FF90EF90DF90CF9086
:100E700008954F925F926F927F928F929F92AF925E
:100E8000BF92CF92DF92EF92FF920F931F93CF9377
:100E90006B017C01742EAC019B010E947F128823A0
:100EA00099F083E491E0CF911F910F91FF90EF9023
:100EB000DF90CF90BF90AF909F908F907F906F907A
:100EC0005F904F900C94030546015701E894B7F8E2
:100ED0002FEF3FEF4FE75FE7C501B4010E947F129C
:100EE00081110DC02FEF3FEF4FE75FE7C501B40160
:100EF0000E94B51018161CF487E491E0D4CF2FEFB0
:100F00003FEF4FE75FE4C701B6010E940D121816CC
:100F10001CF48BE491E0C7CF2FEF3FEF4FE75FEC7E
:100F2000C701B6010E94B51087FDF3CF20E030E085
:100F3000A901C701B6010E94B51010E000E087FFCB
:100F40000AC06DE286E891E00E94B8018C01F7FAD0
:100F5000F094F7F8F094C0E060E070E080E09FE388
:100F60007C1641F020E030E040E251E40E94BA10EB
:100F7000CF5FF6CFA70196010E9449102B013C01DB
:100F80000E942C114B015C014AE00E9410057C017B
:100F9000E00EF11ECC23C1F1C501B4010E945B112A
:100FA0009B01AC01C301B2010E9448104B015C01DE
:100FB0006EE286E891E00E94B801E80EF91EC15089
:100FC00018F120E030E040E251E4C501B4010E9494
:100FD00012122B013C010E942C114B01B12CA12CAF
:100FE0004AE0C501B4010E941005E80EF91EC501D2
:100FF000B4010E945B119B01AC01C301B2010E94CC
:1010000048104B015C01DBCFC701CF911F910F91BD
:10101000FF90EF90DF90CF90BF90AF909F908F9018
:101020007F906F905F904F9008951F920F920FB630
:101030000F9211242F933F934F935F936F937F935E
:101040008F939F93AF93BF93EF93FF9386E891E0C5
:101050000E949601FF91EF91BF91AF919F918F9167
:101060007F916F915F914F913F912F910F900FBEA4
:101070000F901F9018951F920F920FB60F92112488
:101080002F938F939F93EF93FF93E0919601F091AD
:1010900097018081E0919C01F0919D0182FD1BC030
:1010A000908180919F018F5F8F732091A0018217A3
:1010B00041F0E0919F01F0E0EA57FE4F958F809359
:1010C0009F01FF91EF919F918F912F910F900FBEF4
:1010D0000F901F9018958081F4CF1F920F920FB63A
:1010E0000F9211242F933F938F939F93AF93BF93AE
:1010F00080917A0190917B01A0917C01B0917D015A
:101100003091790123E0230F2D3758F50196A11D69
:10111000B11D2093790180937A0190937B01A09374
:101120007C01B0937D0180917E0190917F01A0911F
:101130008001B09181010196A11DB11D80937E01B6
:1011400090937F01A0938001B0938101BF91AF91F3
:101150009F918F913F912F910F900FBE0F901F90F5
:10116000189526E8230F0296A11DB11DD2CF1F921C
:101170000F920FB60F9211242F933F934F935F93CB
:101180006F937F938F939F93AF93BF93CF93DF938F
:10119000EF93FF9380917801C0914702D0E087FFE1
:1011A00024C01092850010928400809178018F5F96
:1011B0008093780180917801082E000C990B8C1790
:1011C0009D0724F4809178018C30C4F180918400D3
:1011D00090918500049680349C4908F47AC08091EF
:1011E000840090918500049676C080917801082E45
:1011F000000C990B8C179D07C4F6E09178018E2F97
:10120000EE0F990BFC01EE0FFF1FE80FF91FED5DCC
:10121000FD4F808186FFC9CFE09178018E2FEE0FC0
:10122000990BFC01EE0FFF1FE80FF91FED5DFD4F5D
:10123000808160E08F730E942502B7CF20918400E7
:1012400030918500E09178018E2FEE0F990BFC0113
:10125000EE0FFF1FE80FF91FED5DFD4F81819281B9
:10126000820F931F9093890080938800E09178010A
:101270008E2FEE0F990BFC01EE0FFF1FE80FF91FE9
:10128000ED5DFD4F808186FF11C0E09178018E2FCA
:10129000EE0F990BFC01EE0FFF1FE80FF91FED5D3C
:1012A000FD4F808161E08F730E942502FF91EF91D5
:1012B000DF91CF91BF91AF919F918F917F916F916E
:1012C0005F914F913F912F910F900FBE0F901F9004
:1012D000189580E49CE990938900809388008FEFB3
:1012E00080937801E3CFCF92DF92EF92FF9210923A
:1012F00089011092880138EEC32E33E0D32EE12C01
:10130000F12CC0928A01D0928B01E0928C01F09274
:101310008D018AE091E0909387018093860185ECAE
:1013200090E0909393018093920184EC90E09093ED
:1013300095018093940180EC90E0909397018093C5
:10134000960181EC90E0909399018093980182EC52
:1013500090E090939B0180939A0186EC90E09093AB
:101360009D0180939C0110929F011092A001109208
:10137000A1011092A20160E08DE00E947102EBEDEC
:10138000F0E0E491E093A602E7ECF0E0E491F0E015
:10139000EE0FFF1FE055FF4F859194919093A802A7
:1013A0008093A7021092B1021092B3021092B2027F
:1013B0001092B0021092AF021092AE021092AD02E3
:1013C0001092AC021092AB021092AA021092A902E3
:1013D00086EA92E090939902809398021092960286
:1013E000109297021092920289E08093930281E01A
:1013F00080939402809395021092A5021092A40209
:1014000084E090E09093490280934802C0925A028F
:10141000D0925B02E0925C02F0925D0210925E025A
:10142000109263021092640210926502109266029A
:1014300081E090E0909368028093670210926A02C4
:101440001092690210926C0210926B021092790253
:1014500010927A0210927B0210927C0210927D020E
:1014600010927E0210927F02109280028FE190E033
:10147000909386028093850281E290E090938802A7
:1014800080938702809147028C30E8F491E0980FB6
:10149000909347028093890290E0FC01EE0FFF1FBA
:1014A000E80FF91FED5DFD4F88EB9BE09283818390
:1014B0008FE190E090938D0280938C02FF90EF90EB
:1014C000DF90CF9008958FEF80938902F1CFCF9373
:1014D000DF93CDB7DEB728970FB6F894DEBF0FBE07
:1014E000CDBF789484B5826084BD84B5816084BDAD
:1014F00085B5826085BD85B5816085BD80916E00B2
:10150000816080936E0010928100809181008260E2
:10151000809381008091810081608093810080911F
:1015200080008160809380008091B100846080930E
:10153000B1008091B00081608093B00080917A000A
:10154000846080937A0080917A00826080937A0030
:1015500080917A00816080937A0080917A0080681F
:1015600080937A001092C100E0919601F09197016A
:1015700082E08083E0919201F09193011082E091EA
:101580009401F09195018FEC808310929E01E0917F
:101590009A01F0919B0186E08083E0919801F0919F
:1015A0009901808180618083E0919801F091990197
:1015B000808188608083E0919801F0919901808119
:1015C00080688083E0919801F091990180818F7DFE
:1015D000808361E08CE00E94710261E08AE00E94F9
:1015E000710261E088E00E94710261E086E00E9481
:1015F000710261E08CE00E94250261E08AE00E94B5
:10160000250261E088E00E94250261E086E00E94F8
:101610002502809189028C3008F050C061E084E09E
:101620000E947102E09189028E2F90E0DC01AA0FE6
:10163000BB1FA80FB91FAD5DBD4F8C91807C84602E
:101640008C9310928A0210928B022CE08E2F622FC4
:101650000E948412829FB001112430E020E0AB018F
:10166000420F531FDA01AA0FBB1FA40FB51FAD5DB8
:10167000BD4F9C9196FD16C02F5F3F4F2C3031051A
:1016800071F781110FC01092800082E08093810079
:101690001092850010928400B19A80916F00826050
:1016A00080936F008E2F90E0FC01EE0FFF1FE80F7C
:1016B000F91FED5DFD4F80818064808382E090E0C2
:1016C000909391028093900205E010E00E946205E1
:1016D00064EF71E080E090E00E94C7020E94AB05D9
:1016E00064EF71E080E090E00E94C70201501109B0
:1016F00069F70E94DC0362E370E080E090E00E9402
:10170000C7025AE4E52E52E0F52E10E000E0809189
:10171000480290914902081719074CF5602FCE0135
:1017200001960E94EA0581110DC060E070E08EEF25
:1017300092ECF70161937193819391937F010F5F15
:101740001F4FE5CFCE0101960E944904813824EE57
:1017500092075CF3BC01990F880B990B0E945D11F5
:1017600020E030E040E05CE30E941212E2CF84E02F
:1017700090E09093600280935F0280E090E0A0EBA5
:10178000B1E480936D0290936E02A0936F02B093C8
:10179000700280E090E0A0E8BFE380937102909334
:1017A0007202A0937302B09374020E94FA026093D3
:1017B0008201709383018093840190938501222498
:1017C0002394312C40906D0250906E0260906F0215
:1017D000709070020E94A006009148021091490288
:1017E0003AE4832E32E0932EB12CA12CC12CD12CC3
:1017F0007601A016B10684F4F40121913191419152
:1018000051914F01C701B6010E9449106B017C0143
:10181000FFEFAF1ABF0AEDCFB801110F880B990B7C
:101820000E945D119B01AC01C701B6010E94BA1074
:101830009B01AC01C301B2010E9448106B017C0105
:10184000C0927902D0927A02E0927B02F0927C02FE
:101850006091670270916802072E000C880B990B4B
:101860000E945D11A70196010E9412122B013C01FA
:101870006091690270916A02072E000C880B990B27
:101880000E945D1120917D0230917E0240917F0285
:10189000509180020E9412126B017C0120E030E026
:1018A00040EA51E40E940D1218160CF444C120E0E5
:1018B00030E040EA51ECC701B6010E94B51087FD47
:1018C00041C160916B0270916C02072E000C880B75
:1018D000990B0E945D11209181023091820240910A
:1018E0008302509184020E9412124B015C01A701F5
:1018F0009601C301B2010E9449109B01AC01C501D0
:10190000B4010E9449106B017C01C0927502D09213
:101910007602E0927702F092780200915F021091D5
:1019200060020230110509F486C108F012C10115E8
:10193000110509F4DEC20130110509F469C2809174
:101940005F02909160020297A1F4809161029091F0
:101950006202029771F40E94AB0561E08CE00E9484
:10196000250260E08AE00E94250261E088E00E9492
:10197000250280915F0290916002039791F480911B
:10198000610290916202039761F461E08CE00E9431
:10199000250261E08AE00E94250261E088E00E9461
:1019A000250280915F02909160020197A1F48091DD
:1019B000610290916202019771F40E94620561E0F8
:1019C0008CE00E94250261E08AE00E94250260E02E
:1019D00088E00E94250280915F0290916002892B2D
:1019E000A1F48091610290916202892B71F40E94AE
:1019F000620560E08CE00E94250261E08AE00E94BE
:101A0000250260E088E00E9425020E94FA0200910F
:101A10008201109183012091840130918501601B26
:101A2000710B820B930B693873418105910508F4A2
:101A3000BFC286E591E00E940305C0905F02D0908E
:101A400060020D2C000CEE08FF084AE0C701B60149
:101A5000F7FE0DC06DE286E891E00E94B8016627AE
:101A60007727CB016C197D098E099F094AE00E94F6
:101A700010058FE491E00E94030582E591E00E9449
:101A80000305C0906102D09062020D2C000CEE089C
:101A9000FF084AE0C701B601F7FE0DC06DE286E817
:101AA00091E00E94B80166277727CB016C197D0968
:101AB0008E099F094AE00E9410058FE491E00E9480
:101AC00003058EE591E00E94030560916D0270911F
:101AD0006E0280916F029091700242E00E9439077D
:101AE0008FE491E00E94030587E691E00E940305E0
:101AF0000E94A00600914802109149028AE4C82E73
:101B000082E0D82EF12CE12C812C912C5401E0168E
:101B1000F1060CF01DC2F6012191319141915191D4
:101B20006F01C501B4010E9449104B015C01FFEF38
:101B3000EF1AFF0AECCFC12CD12C20EAE22E21E4CF
:101B4000F22EBFCEC12CD12C90EAE92E91ECF92EC9
:101B5000B8CE0330110509F49EC00430110509F018
:101B6000EECE8090710290907202A0907302B090BD
:101B7000740220E030E040E450E4C501B4010E946A
:101B800012129B01AC01C701B6010E940D1218167A
:101B9000BCF482E090E09093600280935F0284E066
:101BA00090E090936202809361020E94FA02609337
:101BB0006302709364028093650290936602BFCEC5
:101BC00020E030E040E850ECC501B4010E94121260
:101BD0002B013C0120E030E040E050ECC501B401B5
:101BE0000E9412129B01AC01C701B6010E94B51000
:101BF00087FF0DC0A3019201C701B6010E940D121B
:101C000018162CF43092600220925F02C8CFA30114
:101C10009201C701B6010E94B51018162CF010925F
:101C2000600210925F02BBCFE3E0F0E0F09360024D
:101C3000E0935F02B4CF80916102909162028230A2
:101C4000910551F008F47BCE059708F078CE1093FB
:101C500062020093610273CE20E030E040E450E481
:101C6000609171027091720280917302909174027E
:101C70000E9412129B01AC01C701B6010E940D1215
:101C8000181634F0E3E0F0E0F0936002E0935F02B6
:101C900082E090E086CF8091610290916202823072
:101CA000910509F442C0D0F5019709F048CE0E9491
:101CB000FA02C0906302D0906402E0906502F09056
:101CC00066026C197D098E099F09613E7349844043
:101CD000910508F041C00E94FA0220E030E040E0A7
:101CE00050EC609171027091720280917302909138
:101CF00074020E9412129B01AC01609175027091F6
:101D0000760280917702909178020E94B51087FF49
:101D100016CE3092600220925F0211CE8330910580
:101D2000E9F1049709F493CF0ACE0E94FA02C09019
:101D30006302D0906402E0906502F09066026C1934
:101D40007D098E099F09693C7F4A8105910508F04C
:101D50007ECF0E94FA02F3CD20E030E040E050EC6C
:101D6000609171027091720280917302909174027D
:101D70000E9412129B01AC01609175027091760273
:101D800080917702909178020E940D1218160CF043
:101D9000A4CF10936202009361029FCF80907102E2
:101DA00090907202A0907302B090740220E030E034
:101DB00040E450E4C501B4010E9412129B01AC0141
:101DC000C701B6010E940D1218166CF482E090E073
:101DD0009093600280935F02E3E0F0E0F093620290
:101DE000E0936102E2CE20E030E040E050ECC5013B
:101DF000B4010E9412129B01AC01C701B6010E94FE
:101E0000B51087FFE9CF3092600220925F02E4CFE5
:101E1000809161029091620281309105D9F028F0A1
:101E20000397029708F413CF8ACD0E94FA02C0905C
:101E30006302D0906402E0906502F09066026C1933
:101E40007D098E099F0961327F4B8240910508F020
:101E5000FECE7FCF8090710290907202A0907302AC
:101E6000B090740220E030E040E050ECC501B401D5
:101E70000E9412122B013C01AC019B01C701B6016B
:101E80000E940D12181634F483E090E090936002E3
:101E900080935F0220E030E040E850ECC501B401DF
:101EA0000E9412124B015C01A3019201C701B6010D
:101EB0000E94B51087FF0CC0A7019601C501B401AF
:101EC0000E94B51087FF04C03092600220925F022A
:101ED000A7019601C501B4010E940D1287FD04C03F
:101EE0001092600210925F023092620220926102B0
:101EF0005CCE80916102909162028130910521F067
:101F000040F0049709F01BCD10926202109261021A
:101F100016CD20E030E040E850EC60917102709105
:101F2000720280917302909174020E9412129B01BE
:101F3000AC01C701B6010E94B510181624F4309206
:101F4000600220925F0210926202109261022DCE16
:101F5000B801110F880B990B0E945D119B01AC0118
:101F6000C501B4010E94BA1042E00E9439078FE413
:101F700091E00E9403058EE691E00E9403056091C6
:101F8000750270917602809177029091780242E01A
:101F90000E94390788E191E00E9403050E94FA023D
:101FA00060938201709383018093840190938501F3
:101FB00080E090E0892B09F405CC0E9482018823FF
:101FC00009F400CC0E940000FDCB052E97FB1EF407
:101FD00000940E94FC0F57FD07D00E94171007FCC9
:101FE00003D04EF40C94FC0F5095409530952195FC
:101FF0003F4F4F4F5F4F0895909580957095619535
:102000007F4F8F4F9F4F08950E943910A59F900DCD
:10201000B49F900DA49F800D911D11240895B7FFCA
:102020000C9404100E940410821B930B0895A1E2EB
:102030001A2EAA1BBB1BFD010DC0AA1FBB1FEE1F42
:10204000FF1FA217B307E407F50720F0A21BB30B8D
:10205000E40BF50B661F771F881F991F1A9469F709
:1020600060957095809590959B01AC01BD01CF0165
:102070000895A29FB001B39FC001A39F700D811D61
:102080001124911DB29F700D811D1124911D089581
:102090005058BB27AA270E9460100C94D3110E94AD
:1020A000C51138F00E94CC1120F039F49F3F19F48B
:1020B00026F40C94C2110EF4E095E7FB0C94BC11CD
:1020C000E92F0E94E41158F3BA17620773078407D7
:1020D000950720F079F4A6F50C9406120EF4E0951D
:1020E0000B2EBA2FA02D0B01B90190010C01CA01D2
:1020F000A0011124FF27591B99F0593F50F4503E7D
:1021000068F11A16F040A22F232F342F4427585F6E
:10211000F3CF469537952795A795F0405395C9F786
:102120007EF41F16BA0B620B730B840BBAF091503E
:10213000A1F0FF0FBB1F661F771F881FC2F70EC0DD
:10214000BA0F621F731F841F48F4879577956795B0
:10215000B795F7959E3F08F0B0CF9395880F08F09C
:102160009927EE0F9795879508950E94981108F486
:1021700081E008950E94CE100C94D3110E94CC11DE
:1021800058F00E94C51140F029F45F3F29F00C94EB
:10219000BC1151110C9407120C94C2110E94E4114D
:1021A00068F39923B1F3552391F3951B550BBB2786
:1021B000AA2762177307840738F09F5F5F4F220FCB
:1021C000331F441FAA1FA9F335D00E2E3AF0E0E8C2
:1021D00032D091505040E695001CCAF72BD0FE2F0C
:1021E00029D0660F771F881FBB1F261737074807A0
:1021F000AB07B0E809F0BB0B802DBF01FF27935858
:102200005F4F3AF09E3F510578F00C94BC110C944E
:1022100007125F3FE4F3983ED4F386957795679570
:10222000B795F7959F5FC9F7880F911D969587958C
:1022300097F90895E1E0660F771F881FBB1F6217AB
:1022400073078407BA0720F0621B730B840BBA0B69
:10225000EE1F88F7E09508950E94EC1188F09F57D3
:1022600098F0B92F9927B751B0F0E1F0660F771FBA
:10227000881F991F1AF0BA95C9F714C0B13091F0B0
:102280000E940612B1E008950C940612672F782F71
:102290008827B85F39F0B93FCCF386957795679575
:1022A000B395D9F73EF490958095709561957F4FE1
:1022B0008F4F9F4F0895E89409C097FB3EF4909587
:1022C0008095709561957F4F8F4F9F4F9923A9F00F
:1022D000F92F96E9BB279395F6958795779567959E
:1022E000B795F111F8CFFAF4BB0F11F460FF1BC0E2
:1022F0006F5F7F4F8F4F9F4F16C0882311F096E975
:1023000011C0772321F09EE8872F762F05C0662322
:1023100071F096E8862F70E060E02AF09A95660FDB
:10232000771F881FDAF7880F9695879597F9089594
:10233000990F0008550FAA0BE0E8FEEF16161706D6
:10234000E807F907C0F012161306E407F50798F03E
:10235000621B730B840B950B39F40A2661F0232B57
:10236000242B252B21F408950A2609F4A140A695D3
:102370008FEF811D811D089597F99F6780E870E0B8
:1023800060E008959FEF80EC089500240A941616EB
:10239000170618060906089500240A941216130653
:1023A000140605060895092E0394000C11F48823E1
:1023B00052F0BB0F40F4BF2B11F460FF04C06F5FFD
:1023C0007F4F8F4F9F4F089557FD9058440F551FD3
:1023D00059F05F3F71F04795880F97FB991F61F0A7
:1023E0009F3F79F087950895121613061406551F1E
:1023F000F2CF4695F1DF08C0161617061806991F8A
:10240000F1CF86957105610508940895E894BB277E
:1024100066277727CB0197F908950E94981108F451
:102420008FEF08950E9425120C94D3110E94C511BC
:1024300038F00E94CC1120F0952311F00C94BC11BF
:102440000C94C21111240C9407120E94E41170F331
:10245000959FC1F3950F50E0551F629FF001729F49
:10246000BB27F00DB11D639FAA27F00DB11DAA1F58
:10247000649F6627B00DA11D661F829F2227B00DA5
:10248000A11D621F739FB00DA11D621F839FA00D30
:10249000611D221F749F3327A00D611D231F849F80
:1024A000600D211D822F762F6A2F11249F575040D7
:1024B0009AF0F1F088234AF0EE0FFF1FBB1F661F52
:1024C000771F881F91505040A9F79E3F510580F01B
:1024D0000C94BC110C9407125F3FE4F3983ED4F3C4
:1024E000869577956795B795F795E7959F5FC1F7BF
:1024F000FE2B880F911D9695879597F908950E9458
:102500009811880B990B0895991B79E004C0991FC5
:10251000961708F0961B881F7A95C9F7809508953D
:1025200097FB072E16F4009407D077FD09D00E9480
:10253000A41207FC05D03EF4909581959F4F089515
:10254000709561957F4F0895AA1BBB1B51E107C091
:10255000AA1FBB1FA617B70710F0A61BB70B881F33
:10256000991F5A95A9F780959095BC01CD010895C2
:10257000EE0FFF1F0590F491E02D0994F894FFCF22
:102580005E00BC00770100000000B80118014501A1
:1025900005027601540168010D0A006F70656E69CD
:1025A0006E6700466C6170206F70656E65640063D5
:1025B0006C6F73696E6700466C617020636C6F733B
:1025C0006564006E616E00696E66006F7666002C51
:1025D00020004C61737453746174653A2000546137
:1025E000726765743A200054656D703A20004F752B
:0825F000747075743A200000BC
:00000001FF
